{
  "contractName": "Transactions",
  "abi": [
    {
      "anonymous": false,
      "inputs": [
        {
          "indexed": false,
          "internalType": "address",
          "name": "from",
          "type": "address"
        },
        {
          "indexed": false,
          "internalType": "address",
          "name": "beneficiary",
          "type": "address"
        },
        {
          "indexed": false,
          "internalType": "uint256",
          "name": "amount",
          "type": "uint256"
        },
        {
          "indexed": false,
          "internalType": "string",
          "name": "message",
          "type": "string"
        },
        {
          "indexed": false,
          "internalType": "uint256",
          "name": "timestamp",
          "type": "uint256"
        }
      ],
      "name": "Transfer",
      "type": "event"
    },
    {
      "inputs": [],
      "name": "_receiver",
      "outputs": [
        {
          "internalType": "address",
          "name": "",
          "type": "address"
        }
      ],
      "stateMutability": "view",
      "type": "function",
      "constant": true
    },
    {
      "inputs": [],
      "name": "sender",
      "outputs": [
        {
          "internalType": "address",
          "name": "",
          "type": "address"
        }
      ],
      "stateMutability": "view",
      "type": "function",
      "constant": true
    },
    {
      "inputs": [
        {
          "internalType": "address payable",
          "name": "receiver",
          "type": "address"
        },
        {
          "internalType": "uint256",
          "name": "amount",
          "type": "uint256"
        },
        {
          "internalType": "string",
          "name": "message",
          "type": "string"
        }
      ],
      "name": "addTransactionToBlockchain",
      "outputs": [],
      "stateMutability": "nonpayable",
      "type": "function"
    },
    {
      "inputs": [],
      "name": "getAllTransactions",
      "outputs": [
        {
          "components": [
            {
              "internalType": "address",
              "name": "_from",
              "type": "address"
            },
            {
              "internalType": "address",
              "name": "_beneficiary",
              "type": "address"
            },
            {
              "internalType": "uint256",
              "name": "_amount",
              "type": "uint256"
            },
            {
              "internalType": "string",
              "name": "_message",
              "type": "string"
            },
            {
              "internalType": "uint256",
              "name": "_timestamp",
              "type": "uint256"
            }
          ],
          "internalType": "struct Transactions.Transaction[]",
          "name": "",
          "type": "tuple[]"
        }
      ],
      "stateMutability": "view",
      "type": "function",
      "constant": true
    },
    {
      "inputs": [],
      "name": "getTransactionCount",
      "outputs": [
        {
          "internalType": "uint256",
          "name": "",
          "type": "uint256"
        }
      ],
      "stateMutability": "view",
      "type": "function",
      "constant": true
    }
  ],
  "bytecode": "0x608060405234801561001057600080fd5b50610e7b806100206000396000f3fe608060405234801561001057600080fd5b50600436106100575760003560e01c806302964ff11461005c57806327506f531461007a5780632e7700f01461009857806367e404ce146100b65780639993cbd6146100d4575b600080fd5b6100646100f0565b6040516100719190610526565b60405180910390f35b610082610116565b60405161008f9190610731565b60405180910390f35b6100a06102c7565b6040516100ad9190610762565b60405180910390f35b6100be6102d0565b6040516100cb9190610526565b60405180910390f35b6100ee60048036038101906100e99190610930565b6102f6565b005b600360009054906101000a900473ffffffffffffffffffffffffffffffffffffffff1681565b60606001805480602002602001604051908101604052809291908181526020016000905b828210156102be57838290600052602060002090600502016040518060a00160405290816000820160009054906101000a900473ffffffffffffffffffffffffffffffffffffffff1673ffffffffffffffffffffffffffffffffffffffff1673ffffffffffffffffffffffffffffffffffffffff1681526020016001820160009054906101000a900473ffffffffffffffffffffffffffffffffffffffff1673ffffffffffffffffffffffffffffffffffffffff1673ffffffffffffffffffffffffffffffffffffffff16815260200160028201548152602001600382018054610223906109ce565b80601f016020809104026020016040519081016040528092919081815260200182805461024f906109ce565b801561029c5780601f106102715761010080835404028352916020019161029c565b820191906000526020600020905b81548152906001019060200180831161027f57829003601f168201915b505050505081526020016004820154815250508152602001906001019061013a565b50505050905090565b60008054905090565b600260009054906101000a900473ffffffffffffffffffffffffffffffffffffffff1681565b3373ffffffffffffffffffffffffffffffffffffffff1631821115610350576040517f08c379a000000000000000000000000000000000000000000000000000000000815260040161034790610a5c565b60405180910390fd5b60016040518060a001604052803373ffffffffffffffffffffffffffffffffffffffff1681526020018573ffffffffffffffffffffffffffffffffffffffff16815260200184815260200183815260200142815250908060018154018082558091505060019003906000526020600020906005020160009091909190915060008201518160000160006101000a81548173ffffffffffffffffffffffffffffffffffffffff021916908373ffffffffffffffffffffffffffffffffffffffff16021790555060208201518160010160006101000a81548173ffffffffffffffffffffffffffffffffffffffff021916908373ffffffffffffffffffffffffffffffffffffffff16021790555060408201518160020155606082015181600301908161047b9190610c28565b50608082015181600401555050600160008082825461049a9190610d29565b925050819055507fc4b32d7ff75a51e487f3cbb5d3202f2efecca1f4c2b987e0039c1d3220b48a8333848484426040516104d8959493929190610deb565b60405180910390a1505050565b600073ffffffffffffffffffffffffffffffffffffffff82169050919050565b6000610510826104e5565b9050919050565b61052081610505565b82525050565b600060208201905061053b6000830184610517565b92915050565b600081519050919050565b600082825260208201905092915050565b6000819050602082019050919050565b61057681610505565b82525050565b6000819050919050565b61058f8161057c565b82525050565b600081519050919050565b600082825260208201905092915050565b60005b838110156105cf5780820151818401526020810190506105b4565b60008484015250505050565b6000601f19601f8301169050919050565b60006105f782610595565b61060181856105a0565b93506106118185602086016105b1565b61061a816105db565b840191505092915050565b600060a08301600083015161063d600086018261056d565b506020830151610650602086018261056d565b5060408301516106636040860182610586565b506060830151848203606086015261067b82826105ec565b91505060808301516106906080860182610586565b508091505092915050565b60006106a78383610625565b905092915050565b6000602082019050919050565b60006106c782610541565b6106d1818561054c565b9350836020820285016106e38561055d565b8060005b8581101561071f5784840389528151610700858261069b565b945061070b836106af565b925060208a019950506001810190506106e7565b50829750879550505050505092915050565b6000602082019050818103600083015261074b81846106bc565b905092915050565b61075c8161057c565b82525050565b60006020820190506107776000830184610753565b92915050565b6000604051905090565b600080fd5b600080fd5b600061079c826104e5565b9050919050565b6107ac81610791565b81146107b757600080fd5b50565b6000813590506107c9816107a3565b92915050565b6107d88161057c565b81146107e357600080fd5b50565b6000813590506107f5816107cf565b92915050565b600080fd5b600080fd5b7f4e487b7100000000000000000000000000000000000000000000000000000000600052604160045260246000fd5b61083d826105db565b810181811067ffffffffffffffff8211171561085c5761085b610805565b5b80604052505050565b600061086f61077d565b905061087b8282610834565b919050565b600067ffffffffffffffff82111561089b5761089a610805565b5b6108a4826105db565b9050602081019050919050565b82818337600083830152505050565b60006108d36108ce84610880565b610865565b9050828152602081018484840111156108ef576108ee610800565b5b6108fa8482856108b1565b509392505050565b600082601f830112610917576109166107fb565b5b81356109278482602086016108c0565b91505092915050565b60008060006060848603121561094957610948610787565b5b6000610957868287016107ba565b9350506020610968868287016107e6565b925050604084013567ffffffffffffffff8111156109895761098861078c565b5b61099586828701610902565b9150509250925092565b7f4e487b7100000000000000000000000000000000000000000000000000000000600052602260045260246000fd5b600060028204905060018216806109e657607f821691505b6020821081036109f9576109f861099f565b5b50919050565b600082825260208201905092915050565b7f496e73756666696369656e742066756e64730000000000000000000000000000600082015250565b6000610a466012836109ff565b9150610a5182610a10565b602082019050919050565b60006020820190508181036000830152610a7581610a39565b9050919050565b60008190508160005260206000209050919050565b60006020601f8301049050919050565b600082821b905092915050565b600060088302610ade7fffffffffffffffffffffffffffffffffffffffffffffffffffffffffffffffff82610aa1565b610ae88683610aa1565b95508019841693508086168417925050509392505050565b6000819050919050565b6000610b25610b20610b1b8461057c565b610b00565b61057c565b9050919050565b6000819050919050565b610b3f83610b0a565b610b53610b4b82610b2c565b848454610aae565b825550505050565b600090565b610b68610b5b565b610b73818484610b36565b505050565b5b81811015610b9757610b8c600082610b60565b600181019050610b79565b5050565b601f821115610bdc57610bad81610a7c565b610bb684610a91565b81016020851015610bc5578190505b610bd9610bd185610a91565b830182610b78565b50505b505050565b600082821c905092915050565b6000610bff60001984600802610be1565b1980831691505092915050565b6000610c188383610bee565b9150826002028217905092915050565b610c3182610595565b67ffffffffffffffff811115610c4a57610c49610805565b5b610c5482546109ce565b610c5f828285610b9b565b600060209050601f831160018114610c925760008415610c80578287015190505b610c8a8582610c0c565b865550610cf2565b601f198416610ca086610a7c565b60005b82811015610cc857848901518255600182019150602085019450602081019050610ca3565b86831015610ce55784890151610ce1601f891682610bee565b8355505b6001600288020188555050505b505050505050565b7f4e487b7100000000000000000000000000000000000000000000000000000000600052601160045260246000fd5b6000610d348261057c565b9150610d3f8361057c565b9250828201905080821115610d5757610d56610cfa565b5b92915050565b6000610d78610d73610d6e846104e5565b610b00565b6104e5565b9050919050565b6000610d8a82610d5d565b9050919050565b6000610d9c82610d7f565b9050919050565b610dac81610d91565b82525050565b6000610dbd82610595565b610dc781856109ff565b9350610dd78185602086016105b1565b610de0816105db565b840191505092915050565b600060a082019050610e006000830188610517565b610e0d6020830187610da3565b610e1a6040830186610753565b8181036060830152610e2c8185610db2565b9050610e3b6080830184610753565b969550505050505056fea2646970667358221220d1d3fe00b4394708cf57a6af63eee75790c5173f5ded5d7cc1bfb25ec219a67f64736f6c63430008110033",
  "immutableReferences": {},
  "source": "// SPDX-License-Identifier: UNLICENSED\npragma solidity ^0.8.15;\n\ncontract Transactions {\n    uint private _transactionCount;\n\n    struct Transaction {\n        address _from;\n        address _beneficiary;\n        uint _amount;\n        string _message;\n        uint _timestamp;\n    }\n\n    // Array and not a mapping with indexes because we will want to get all the transactions\n    Transaction[] private _transactionList;\n\n    event Transfer(address from, address beneficiary, uint amount, string message, uint timestamp);\n\n    address public sender;\n    address public _receiver;\n\n    function addTransactionToBlockchain(\n        address payable receiver,\n        uint amount,\n        string memory message\n    ) public {\n        require(amount <= address(msg.sender).balance, \"Insufficient funds\");\n        _transactionList.push(Transaction(\n            msg.sender,\n            receiver,\n            amount,\n            message,\n            block.timestamp\n        ));\n\n        _transactionCount += 1;\n\n        emit Transfer(msg.sender, receiver, amount, message, block.timestamp);\n    }\n\n    function getAllTransactions() public view returns(Transaction[] memory) {\n        return _transactionList;\n    }\n\n    function getTransactionCount() public view returns(uint) {\n        return _transactionCount;\n    }\n}",
  "sourcePath": "/Users/leootshudi/Documents/PersonnalProjects/payment-between-addresses/contracts/Transactions.sol",
  "compiler": {
    "name": "solc",
    "version": "0.8.17+commit.8df45f5f.Emscripten.clang"
  },
  "schemaVersion": "3.4.10",
  "updatedAt": "2022-10-04T15:47:33.593Z",
  "networkType": "ethereum",
  "devdoc": {
    "kind": "dev",
    "methods": {},
    "version": 1
  },
  "userdoc": {
    "kind": "user",
    "methods": {},
    "version": 1
  }
}